:10000000F8FF0020110400000B2A00000B2A00005A
:100010000B2A00000B2A00000B2A00000B2A00000C
:100020000B2A00000B2A00000B2A00000B2A0000FC
:100030000B2A00000B2A00000B2A00000B2A0000EC
:100040000B2A00000B2A00000B2A00000B2A0000DC
:10040000FFFFFFFFFFFFFFFFFFFFFFFFFEFFFFFFFD
:1004100062B604F0F9FAFEE72DE9F04FA1B082468A
:10042000002016461D4602910B900DF144086FF016
:1004300000490AE016F8011B0298D04700280290F4
:1004400000F0AF820B98401C0B903078010001D176
:100450000B98A8E22528EDD1002005900690079082
:10046000089009900A9001E040F0010016F8011F81
:100470002029F9D023290DD02B2904D02D2906D0ED
:1004800030290AD00CE040F0020080B2EEE740F0E4
:100490000400FAE740F00800F7E740F01000F4E746
:1004A0002A290ED12968296051F8042B2960002AD5
:1004B0000D9204D5514240F004000D9180B2761C9B
:1004C00011E000210D9109E00D99494505D001EB9E
:1004D000810302EB430130390D91761C3278A2F191
:1004E00030010A29F0D331782E2903D04FF0FF31A3
:1004F0000C911DE016F8011F2A2907D129682960EF
:10050000761C51F8042B29600C9211E000210C910B
:1005100009E00C99494505D001EB810302EB430149
:1005200030390C91761C3278A2F130010A29F0D3CF
:10053000ADF838000FF6D820317800F077FD08B11B
:1005400016F8010B8DF83A009DF83A00682802BFB2
:1005500031786829622005D06C2804BF30786C2877
:1005600003D171208DF83A00761C11A8049016F87A
:10057000017BB7F1250024D02038022840F2C38047
:10058000133800F0E8800B3800F05681401E00F070
:100590002C81401E022840F2B680001F00F0258109
:1005A000401F00F08180401E00F0D580401E24D006
:1005B000C01E0BD0801E00F0CE80C01E00F0CB808D
:1005C00044E125208DF84400012049E12868286095
:1005D00050F8044B286003940C9F002F04D520464C
:1005E00000F030FD074606E03A460021204600F0C4
:1005F00045FD00B1071B069733E1296829600022F9
:1006000051F8040B29600021CDE9000111A80390E5
:10061000DDE900019142049F08BF90424FF03C0C7D
:1006200001D10C9AC2B100F00F033033DBB23A2B88
:10063000A8BF2733ACF101020009BB54944640EA3D
:10064000017009090022914208BF904204D0039A28
:1006500007EB0C039A42E6D307EB0C000390CCF1B6
:100660003C010C980691814209DA401A08904FF635
:10067000EF71BDF838000840ADF83800F1E000280F
:1006800040F1EF809DF8380000F01400102840F091
:10069000E8800D98059A801A089A801A401A012855
:1006A000C0F2DF800890DCE09DF83A0062281AD0A2
:1006B000682806D06A280CD06C281CD0712808D075
:1006C00019E02868286050F8041B28600B980880FF
:1006D000C7E02868286050F8042B28600B98C117E1
:1006E000C2E90001BDE02868286050F8041B2860BA
:1006F0000B980870B5E02868286050F8041B286043
:100700000B980860ADE02868C01D20F007022A6041
:10071000D2E9000108322A60CDE90001002902D5A2
:1007200005982D210AE0BDF83800810702D505980B
:100730002B2103E0C00705D50598202108F80010FB
:10074000401C059011A80599084403903946684655
:1007500000F0E8F985E09DF83A006C280DD071288A
:1007600018BF6A2809D12868C01D20F007022A6036
:10077000D2E9000108322A6005E02968296051F8B1
:10078000040B29600021CDE900019DF83A0068289A
:1007900003D1DDE9000180B20BE0622803D1DDE97D
:1007A0000001C0B205E0742818BF7A2804D1DDE941
:1007B00000010021CDE900019DF83800000732D585
:1007C000DDE900230020834208BF82422BD047F09E
:1007D0002000782827D10598302108F80010401C07
:1007E000411C059108F800701DE09DF83A0029466B
:1007F00000F0DCF8CDE90001DDE9002300218B42A7
:1008000002DA05982D210AE0BDF83800810702D5EB
:1008100005982B2103E0C00705D50598202108F88D
:100820000010401C059011A8059908440390394612
:10083000684600F0F2F814E001200590286828606E
:1008400050F8041B28608DF844100AE025208DF82C
:10085000440001200590380003D088F80170022080
:1008600005900D980599401A0899401A0699401A62
:100870000999401A0799401A0A99471A9DF83800B1
:10088000400710D42020012F8DF840000BDB3C46A0
:10089000012310AA6946504600F0A2FB002840F050
:1008A0008080641EF4D1DDF814B0BBF1000F11ACF0
:1008B0000CD014F8011B0298D0470028029070D089
:1008C0000B98401CBBF1010B0B90F2D130208DF83E
:1008D0004000089C012C09DB012310AA6946504600
:1008E00000F07EFB00285CD1641EF5D1DDF818B065
:1008F000039CBBF1000F0CD014F8011B0298D047E9
:10090000002802904DD00B98401CBBF1010B0B90BE
:10091000F2D130208DF84000099C012C09DB012325
:1009200010AA6946504600F05BFB002839D1641ECE
:10093000F5D103980699DDF81CB04418BBF1000FFF
:100940000BD014F8011B0298D047029048B30B98C3
:10095000401CBBF1010B0B90F3D130208DF840000F
:100960000A9C012C08DB012310AA6946504600F0BE
:1009700037FBB0B9641EF6D19DF8380040077FF50B
:1009800064AD2020012F8DF84000FFF65EAD0123FD
:1009900010AA6946504600F023FB10B97F1EF6D11D
:1009A00053E54FF0FF3021B0BDE8F08F622826D02C
:1009B00068281DD06A2808D06C2827D0712804D058
:1009C000742823D07A280CD020E00868C01D20F0BD
:1009D00007000860D0E90023083008601946104677
:1009E00070470A680A6052F8040B0A6000217047D9
:1009F0000A680A6052F8040B0A6000B20BE00A6849
:100A00000A6052F8040B0A6040B204E00A680A6007
:100A100052F8040B0A60C11770472DE9F3430546ED
:100A200008462F696F2808BF082405D041F020012F
:100A3000782914BF0A2410243C26D5E90023642811
:100A400018BF69289046994606D100218B4203DAE7
:100A5000D8F1000869EB49090020814508BF8045AD
:100A60000CD1286B50B9082C38D195F83800000704
:100A700034D530203B2687F83B002FE0701E0090D5
:100A80000646404649462246E31700F023FB02F1A2
:100A90003000C0B23A2803DB9DF804105139081821
:100AA000B855494640462246E31700F013FB8046FE
:100AB00089460020814508BF804503D0E868B91900
:100AC0008842DBD3082C09D195F83800000705D5FA
:100AD000B85D302802D0761E3020B855B919E960CB
:100AE000C6F13C00296BA861884208DA081A28621E
:100AF0004FF6EF71288F08402887BDE8F38300295F
:100B00000ED595F8381001F01401102908D1696B41
:100B10006A69891A2A6A891A0E1A012EA8BF2E62DA
:100B2000BDE8F3832DE9F34F8BB0D0E90089006B6A
:100B3000002801AF48BF062005D404BF41F02000C3
:100B4000672802D101200B99086340F2FF720B98CD
:100B50004168C1F30A50904220D1080302BF0B98AC
:100B6000006800280AD10B99032088619DF83000A5
:100B700061381A2858D30FF2AC4109E00B990320D1
:100B800088619DF8300061381A284AD30FF28C41F1
:100B90000B98C068032200F015FBFFE0012807DA7C
:100BA0000B9800F04AFB012802DB00230026ECE052
:100BB0000B9ADFF854B1526840F2FE3161F31E52D5
:100BC0000B994A6040F2FE31401A00B247F2975149
:100BD00048434E4990FBF1F6404649460022002327
:100BE00000F04EFB36B238BF89F00049C6F1070766
:100BF000012F92461BDBF80707D552465B4640465D
:100C0000494600F055FB80468946504659465246B3
:100C10005B467F1000F04CFB002F82468B46EAD1EA
:100C200026E00FF2F431B3E70FF2F431B0E77F4280
:100C30000024374D12E0F80707D552465B462046A0
:100C4000294600F035FB04460D46504659465246AB
:100C50005B4600F02DFB7F1082468B46002FEAD1C9
:100C60004046494622462B4600F0F4FB8046894622
:100C70009DF830000B99DFF89CB0096B40F020051F
:100C8000662D0CBF06F10A0006204718142FA8BFD6
:100C9000132730208DF804000DF10504012F3BDBF4
:100CA0004046494600F018FD014604F108020423BD
:100CB0004FF00A0CB1FBFCFC0CEB8C04A1EB4401E3
:100CC000303102F8011C0A21BCFBF1FE0EEB8E0450
:100CD000ACEB440430345B1E714602F8024DE7D1A0
:100CE000083F012F02F10804D8DB00F015FD024691
:100CF0000B464046494600F01DFD00225B4600F0D1
:100D0000D7FA80468946CBE700002440A086010040
:100D10000000F03F84D797410DF10500201A0DF136
:100D2000050702E0401E761E7F1C39783029F9D075
:100D3000662D08BF711C03D0652D0CBF0121002159
:100D40000B9A126B8B181BB29842B8BF03461BB2AA
:100D500019001AD4814204DA785C3528A8BF3920FA
:100D600000DA30207A18521E00E05B1E12F80149AA
:100D7000491E8442F9D0392802D1785C401C78544D
:100D8000002902D57F1E5B1C761C36B29DF8301000
:100D90000B9800961BB23A4600F003F80DB0BDE880
:100DA000F08F2DE9F04786B006468A4690461D46EC
:100DB00000F09DFD012D406A376B90F8009002DA3B
:100DC00001250FF264284AF02000BDF9384066285A
:100DD00008BF641C13D0672840F08A8014F1040F08
:100DE00075DBBC4273DA96F83800641C000702D445
:100DF000BD42B8BF2F4624B23F1B48BF002724B2D4
:100E0000F068B169012C23DA4A1C30234354012FC6
:100E100003DA96F83800000703D5F06800F802906E
:100E2000521CE742B8BF7C4224B260427062E719AC
:100E3000AF42B261B8BF3D46F068B3692DB2F5610B
:100E40002A464146184400F0BDF9781BB062B0E074
:100E500022469542084416DA2A46414600F0B2F985
:100E6000B1696918601B012FB161706203DA96F8ED
:100E70003800000705D5F06800F80190F069401CC3
:100E8000F061B76295E0414600F09CF9B069201826
:100E90002D1B012F03DA96F83810090703D5F168E6
:100EA00001F80090401CB0612DB2AF42B8BF3D4682
:100EB000F068B3692DB22A4608EB0401184400F02B
:100EC00081F9B0692818B061781B706271E0BD4289
:100ED00004DA96F83810090758BF2F467F1E48BF1E
:100EE0000027BAF1670F0CBF4FF0650A4FF0450AB3
:100EF000B169F368481CB061012F18F8012B5A54EE
:100F000003DA96F83810090717D5F168431CB36166
:100F100001F80090012F10DB6D1E2DB2AF42B8BF5B
:100F20003D46F0682DB22A464146184400F04AF981
:100F3000B0692818B061781B7062F068B16901442B
:100F4000200081F800A004D42B20487001F1020891
:100F500004E02D224A7001F102086442002502AF2C
:100F600008E00A22684600F0DBFC019807F8010B54
:100F70006D1C009C21B20129F3DA022D06DA4AF039
:100F80002000652804BF302008F8010B4DB930203F
:100F900008F8010B07E06D1E02A8405D303008F82C
:100FA000010B012DF7DAF068B1690844A8EB0000E5
:100FB000F06196F8380000F0140010280DD1706927
:100FC000B1690818716A0818F1690818B16A081837
:100FD000716B8842BCBF081A306206B0BDE8F0876A
:100FE000F8B504460D4616461F46002077B116F8A0
:100FF000011BA868A047A86030B1E86A401CE862FD
:1010000000207F1EF3D1F2BD4FF0FF30F2BD000093
:10101000686A6C747A4C00006E616E004E414E003E
:10102000696E6600494E46003000FF000278C9B282
:101030008A421AB11CBF10F8012FF9E718BF00202F
:101040007047000000F10103810704D010F8011B74
:1010500089B18107FAD10268B2F10131914311F0EF
:10106000803F04BF50F8042FF6E710F8011B11B1C0
:1010700010F8011BFBE7C01A70470000C9B28307D4
:1010800006D0521E22D310F8013B9942F7D11FE03F
:10109000083A13D302F1040241EA012141EA014175
:1010A00050F8043B121F21BF4B40A3F1013C2CEA36
:1010B000030C1CF0803FF3D0C9B2001F083210F8B7
:1010C000013B521E28BF91EA030FF8D818BF012038
:1010D000401E70471B4213D1094236D12AB18446C3
:1010E000B0FBF2F002FB10C2704700F021BCFCD351
:1010F0000022002370470B000200002100207047EF
:10110000904271EB030CF6D370B5B1FA81F4B3FAE7
:1011100083F52C1BA340C4F1200532FA05F63343B6
:10112000A2405FF00046E64002E05B085FEA320260
:10113000841A71EB030524BF204629467641F4D377
:1011400002000B003000002170BD012ACFD970B51C
:10115000140C20D0B1FA81F4B2FA82F5C4F1200463
:101160006419B4F12006D6D3B2405FF00044F440D5
:10117000002502E052085FEA3303C61A71EB020E43
:1011800024BF3046714664416D41F3D302000B0029
:101190002000290070BD0C46B1FBF2F102FB1145A5
:1011A0002D0445EA1045B5FBF2F402FB145580B25C
:1011B00040EA0545B5FBF2F002FB105240EA04405C
:1011C00070BD000062B38B0708D0521E11F8013BBE
:1011D00000F8013B00F024808B07F6D1830740F034
:1011E000208000BF103A07D330B4B1E83810103A6D
:1011F000A0E83810F9D230BC530724BFB1E808107A
:10120000A0E8081044BF51F8043B40F8043BD20763
:1012100024BF31F8022B20F8022B44BF0B78037057
:101220007047083A07D3B1E80810083A40F8043B81
:1012300040F804CBF7D25307E4E730B4436803F037
:1012400000420121C3F313034360002B04BF036872
:10125000002B08D10DE00368DD0F45EA440444602B
:101260005B000360491E4468E302F4D5C4F3130332
:10127000436043681A434260084630BC7047000030
:101280004FF4001C1CEB410F94BF1CEB430F09E013
:1012900041EA030C50EA4C0C52EA0C0C03D299427E
:1012A00008BF9042704714BF8B42824270470000D3
:1012B000B0B581EA030C0CF0004C40F2FF7515EA62
:1012C00011541DBF15EA1357AC42AF4239E0E4197F
:1012D00023EA455343F48013C90241F0004141EA37
:1012E000505EC7021100A7FB020200284FF0000069
:1012F000EEFB01204FF00001E3FB072118BF42F095
:101300000102401800214941E3FB0E01A4F580646D
:101310000F0302D252004041494154F101046CDDF7
:10132000470872F1004250F1000051EB0451A1F561
:1013300080115CBF41EA0C01B0BD4CEA05510020B0
:10134000B0BD05EA1357AC4214BFAF4241E050EACA
:10135000410E1CBF52EA430E02E061460020B0BDC0
:1013600024423C441BD15FEA070EF6D0090302BFBA
:1013700001460020AEF1140EB1FA81F7AEEB07047E
:1013800001FA07FE0C37C7F1200100FA07F7C84041
:101390004EEA000E23EA455343F48013A2E733F0EC
:1013A0000043B3FA83F704BFB2FA82FE77440B3FDF
:1013B000E41BB7F1200E2FBF02FA0EF3BB40C7F1BA
:1013C000200E22FA0EFE38BF43EA0E03BA40641C18
:1013D00082E750EA410E14BF52EA430E6FF000015B
:1013E0004FF4001717EB430F8ABF194617EB410F55
:1013F000B5E74CEA05510020B0BDD4F10104B4F1C9
:1014000020070FDAC4F12007520828BF42F001027A
:1014100010FA07F501FA07F7E1BF2A43E040384325
:10142000E1400FE0352C98DCC7F1200452EA40027D
:1014300020FA07F218BF42F0010231FA07F0A1408A
:101440000A43002172F1004250F1000051EB0C01FF
:10145000B0BD00002DE9F04140F2FF7581EA030CB8
:101460000CF0004C15EA11541DBF15EA1357AC429D
:10147000AF42E9E0BC41C1F31301C3F31303801A87
:10148000994143F4801304D2641E400049418018FE
:101490005941C90241EA5051B1FBF3F603FB161161
:1014A000A2FB0675D7EBC020A94102D2761E801898
:1014B0005941C90241EA5051B1FBF3FE03FB1E1131
:1014C000A2FB0E75D7EBC020A94103D2AEF1010EED
:1014D00080185941890241EA9051760546EA8E2EDC
:1014E000B1FBF3F603FB1611A2FB0675D7EB8020C8
:1014F000A94102D2761E80185941C90241EA5051D1
:101500004EEA060EB1FBF3F603FB1611A2FB0675BD
:10151000D7EBC020A94102D2761E80185941C902DA
:1015200041EA5051B1FBF3F703FB1711A2FB07355A
:10153000D3EBC020A94167F100070CBF004247F080
:10154000010766F3D5274FEA1E31B80814F5806409
:1015500014DDBD0775F1004250EB0E5051EB045104
:1015600011F5801F5CBF41EA0C01BDE8F0814CF031
:101570007F6141F0E0410020BDE8F081BD076D08CA
:1015800040EA0E5041F48011D4F10104B4F1200678
:101590000ADAC4F120060200E04001FA06F3E14055
:1015A0001843B24015430EE0342C14DCC6F120047D
:1015B00045EA40056D0820FA06F2154321FA06F0C7
:1015C000A1400D43002175F1004250F1000051EBA4
:1015D0000C01BDE8F08100205FEA0C01BDE8F0815C
:1015E000CFB992185B41B3FA83F704BFB2FA82F61F
:1015F000BF190B3FB7F120062FBF02FA06F3BB401D
:10160000C7F1200622FA06F638BF3343BA401CB1B0
:10161000E419641E2FE77F4231F00041B1FA81F4F2
:1016200004BFB0FA80F6A4190B3CB4F120062FBF1A
:1016300000FA06F1A140C4F1200620FA06F638BFF0
:101640003143A0403C1B16E7AC421ABF05EA1357D2
:10165000AF4214E050EA41061CBF52EA4306BFE71E
:1016600050EA4107304661461CBF41EA0551BDE8DA
:10167000F08152EA430C08BFC143BDE8F08100206D
:101680004FF4001616EB410F98BF16EB430F08BF3F
:1016900016EB410F24BFC14305E016EB430F0CBF0F
:1016A00061464CEA0551BDE8F0810000F446400D6A
:1016B00040EAC120490006D200F014F8004248BFB9
:1016C0006FF00040604700F00DF84FF00041884295
:1016D0008CBF084640426047400D40EAC1204900A7
:1016E00080F00D8040F00040490DA1F58061491C5B
:1016F00005D4D1F11F0154BFC840C01770474FF047
:1017000000007047010040F10980F446404200F0BB
:1017100005F851F000416047010000BF09D0B0FA60
:1017200080F18840C91CC1F58461090501EBD02115
:1017300040057047F0B44FF0004591EA030F44BFF5
:101740006B4000F0F7B800BF841A71EB030604D2B7
:101750006E40001BB141121973414FF4001C1CEB89
:10176000410F34BF7CEB430684E00C0DA4EB135611
:10177000362E7DDC012E43DC45EAC32343EA525377
:1017800012BFD20292025B08240545EAC12141EA58
:101790005051D2EBC020994125D407D1B0FA80F640
:1017A00010FA06F164D00020203608E0B1FA81F684
:1017B000B140C6F1200220FA02F21143B0404FEAD4
:1017C000F474B4EB465434F001064FEA74040AD8BA
:1017D000D6F50016760D04F00044F04061FA06F2EA
:1017E0005040F1404840C00A40EA415021F00041D9
:1017F00028BF5FEA500550F1000044EBD12137E0EB
:1018000045EAC323DB0A45EAC121C90AB6F120052E
:101810000EDD42EA0242120CC5F1200603FA06F67A
:10182000EB4042EA06056D42984161F100010DE08E
:1018300062FA06F5F240554063FA06FC82EA0C02B1
:10184000F3405A406D42904161EB030111F4801F57
:1018500005D1641E620502D06D004041494121F46A
:101860008011430875F1004350F1000041EB045131
:10187000F0BC70471CEB410F15D223F0004352EA35
:1018800043060BD04FEA4C0CBCEB410F04D80C0DB7
:10189000661E342EB7DDEBE7801A994150EA410607
:1018A00008BF0021E4E708BF1CEB430F28BF6FF01F
:1018B0000001DDE780B5134800F0A6F80FF24C02F6
:1018C0000FF244010160426241600FF24402826300
:1018D00081600FF24402C1600161416181618162F6
:1018E000C16201634163C2630164416401BD10B51B
:1018F000044800F089F80446206808B9FFF7DAFFC9
:10190000204610BD8024FF1F000000002E000000B4
:1019100066616C73650000007472756500000000FC
:1019200091FBF2F303FB1211C0E900317047000094
:1019300070470000841A71EB030603D2001BB1410B
:10194000121973414FF4001C1CEB410F34BF7CEBA8
:10195000430443E00C0DA4EB1356352E50DC45EA4E
:10196000C323DB0A45EAC121C912B6F120050DDD0A
:1019700063FA05F6EB4086EA0305124218BF45F00C
:101980000105C01851F100010CD213E062FA06F50E
:10199000F2405540F3415A40B340F3405A4080185A
:1019A000594107D349085FEA30005FEA350528BF8F
:1019B00045F0010501F58011420875F1004250F132
:1019C000000041EB0451F0BC4FF4001C1CEB410F34
:1019D00038BF70470020090D090570471CEB410F07
:1019E00010D252EA43060BD0BCEB410F05D80C0DC8
:1019F000AB43661E342EB5DD02E0AB43801859417F
:101A0000F0BC7047F0BC7047704700000000000059
:101A100000000000000000000000000000000000C6
:101A2000000000000000000000004E6F6E4D61736A
:101A30006B61626C6500000000486172644661750C
:101A40006C740000000000004D656D4D616E6167B3
:101A5000656D656E7400004275734661756C740047
:101A600000000000000055736167654661756C7485
:101A70000000000000000000000000000000000066
:101A80000000000000000000000000000000000056
:101A90000000000000000000000000000000000046
:101AA0000000000000000000000000000000000036
:101AB00000535643616C6C00000000000000000001
:101AC00044656275674D6F6E69746F720000000047
:101AD0000000000000000000000000000000506551
:101AE0006E6453560000000000000000005379733C
:101AF0005469636B0000000000000000444D413059
:101B00000000000000000000000000444D413100D2
:101B100000000000000000000000444D41320000C1
:101B2000000000000000000000444D4133000000B0
:101B30000000000000000000444D4134000000009F
:101B400000000000000000444D413500000000008E
:101B5000000000000000444D41360000000000007D
:101B60000000000000444D4137000000000000006C
:101B700000000000444D413800000000000000005B
:101B8000000000444D41390000000000000000004A
:101B90000000444D41313000000000000000000012
:101BA00000444D4131310000000000000000000001
:101BB000444D4131320000000000000000000044AC
:101BC0004D41313300000000000000000000444D92
:101BD00041313400000000000000000000444D418D
:101BE000313500000000000000000000444D415F5E
:101BF0004572726F720000000000004D434D0000FE
:101C0000000000000000000000004654464C0000A8
:101C1000000000000000000000526561645F436F37
:101C20006C6C6973696F6E004C56445F4C5657007C
:101C3000000000000000004C4C57000000000000B5
:101C40000000000000005761746368646F67000063
:101C50000000000000524E4700000000000000009D
:101C60000000000049324330000000000000000086
:101C70000000004932433100000000000000000075
:101C80000000535049300000000000000000000038
:101C90000053504931000000000000000000000027
:101CA00053504932000000000000000000000043D3
:101CB000414E305F4F525F4D425F62756600434157
:101CC0004E305F4275735F4F666600000043414EC1
:101CD000305F4572726F72000000000043414E3069
:101CE0005F54785F5761726E696E6743414E305F33
:101CF00052785F5761726E696E6743414E305F572D
:101D0000616B655F557000000052657365727665A2
:101D100064353100000000005265736572766564B9
:101D20003532000000000043414E315F4F525F4D9D
:101D3000425F6275660043414E315F4275735F4F8B
:101D4000666600000043414E315F4572726F72005B
:101D50000000000043414E315F54785F5761726E5E
:101D6000696E6743414E315F52785F5761726E69A9
:101D70006E6743414E315F57616B655F5570000080
:101D800000526573657276656435390000000000A5
:101D90005265736572766564363000000000005548
:101DA000415254305F52585F545800000000554172
:101DB0005254305F4552520000000000005541521D
:101DC00054315F52585F545800000000554152543E
:101DD000315F45525200000000000055415254321C
:101DE0005F52585F54580000000055415254325F12
:101DF00045525200000000000055415254335F52DA
:101E0000585F54580000000055415254335F45520A
:101E10005200000000000055415254345F52585F98
:101E200054580000000055415254345F455252004E
:101E3000000000000055415254355F52585F54581D
:101E40000000000055415254355F455252000000D9
:101E5000000000414443300000000000000000008A
:101E60000000414443310000000000000000000079
:101E700000434D5030000000000000000000000052
:101E8000434D5031000000000000000000000043FE
:101E90004D503200000000000000000000004654D9
:101EA0004D30000000000000000000000046544DCE
:101EB00031000000000000000000000046544D32D8
:101EC0000000000000000000000000434D5400002E
:101ED0000000000000000000000052544300000019
:101EE0000000000000000000005265736572766516
:101EF00064383300000000005049543000000000F6
:101F000000000000000000504954310000000000B3
:101F100000000000000050495432000000000000A2
:101F20000000000000504954330000000000000091
:101F3000000000005044423000000000000000009B
:101F40000000005553423000000000000000000077
:101F500000005553424443440000000000000000CC
:101F600000454E45545F313538385F54696D6572B0
:101F7000454E45545F5472616E736D69740000453F
:101F80004E45545F52656365697665000000454EB5
:101F900045545F4572726F72000000000049325371
:101FA00030000000000000000000000053444843DF
:101FB0000000000000000000000000444143300029
:101FC0000000000000000000000044414331000018
:101FD00000000000000000000054534930000000E1
:101FE00000000000000000004D434700000000001A
:101FF000000000000000004C5054696D6572000044
:10200000000000000000526573657276656431302F
:102010003200000000504F52544100000000000008
:1020200000000000504F5254420000000000000029
:10203000000000504F525443000000000000000018
:102040000000504F52544400000000000000000007
:1020500000504F52544500000000000000000000F6
:102060005265736572766564313038000000005245
:102070006573657276656431303900000000526521
:10208000736572766564313130000000005265730B
:102090006572766564313131000000005265736508
:1020A00072766564313132000000005265736572EA
:1020B00076656431313300000000526573657276D5
:1020C00065643131340000000052657365727665D5
:1020D00064313135000000005265736572766564C5
:1020E00031313600000000526573657276656431E7
:1020F00031370000000052657365727665643131D6
:1021000038000000005265736572766564313139BC
:1021100000000000008003400090034000800B405E
:1021200000900B4000F00F4040F00F4080F00F4057
:10213000C0F00F4000F10F4066000A1D3200070199
:10214000640007106E000406780004088200040A88
:102150008C00040C9600040EA0000410AA000412C7
:10216000B4000414BE000416C8000418D200041AF7
:10217000DC00041CE100041DE600041EEB00041F4B
:10218000F4000317FA000318130101062C010214CE
:10219000000109080090044000A0044000B0044081
:1021A00000C0044000D0044000A0064000B006403B
:1021B00000C0064000D0064000A00E4000B00E4017
:1021C0006A6E6B6C676D4E4F343536370DC111003A
:1021D00009030CD01240173F185019031A78320027
:1021E000A00A63E0ACFF650C6600670029142C1E92
:1021F0002A007E0C7F16802A814E8261836F847B49
:102200008586868E879788A489AF8AC58BD78CE808
:102210008D204A00491347084B144C174605229954
:102220002303A6049B009C1CAB069E119F0200008A
:10223000020401012824FF1F7824FF1F2824FF1F08
:102240002824FF1F2824FF1F710CFF1F580CFF1F9D
:10225000000000000000000000000000000000007E
:10226000000000000000000000000000000000006E
:102270000101310038B504000D0064B2002C06D015
:10228000022C69D04CD3032C00F08280C7E0DFF829
:10229000AC05006850F08070DFF8A01508606DB2E2
:1022A000002D0BD0022D15D00ED3042D1ED017D328
:1022B000062D27D020D3072D2AD02FE04FF48061A0
:1022C000412000F0C7FA2AE04FF44071042000F0EA
:1022D000C1FA24E04FF44071052000F0BBFA1EE083
:1022E0004FF44071062000F0B5FA18E04FF4407149
:1022F000072000F0AFFA12E04FF48061652000F093
:10230000A9FA0CE04FF48061662000F0A3FA06E021
:102310004FF48061672000F09DFA00E07FE07EE0EE
:10232000DFF81805006850F00070DFF8101508603D
:102330006DB2002D02D0012D06D00BE04FF440719C
:10234000082000F087FA06E04FF440710D2000F0FD
:1023500081FA00E063E062E0DFF8E404006850F036
:102360008070DFF8DC1408606DB2002D02D0012D02
:1023700006D00BE04FF440710A2000F06BFA06E043
:102380004FF440710B2000F065FA00E047E046E0B2
:10239000DFF8AC04006850F00070DFF8A4140860A7
:1023A0006DB2002D0BD0022D15D00ED3042D1ED0F2
:1023B00017D3062D27D020D3072D2AD02EE04FF497
:1023C000C061852000F046FA28E04FF4C061862005
:1023D00000F040FA22E04FF4C061872000F03AFAA2
:1023E0001CE04FF4C061882000F034FA16E04FF48E
:1023F000C061892000F02EFA10E04FF4C0618A20FD
:1024000000F028FA0AE04FF4C0618B2000F022FAB5
:1024100004E04FF4C0618C2000F01CFAFFE731BDEE
:102420002DE9F84F04000D0016001F0064B2002CC7
:1024300011D064B2012C02D064B2022C02D16DB270
:10244000022D08DB64B2032C05D040F28511DFF8C1
:10245000F40300F070FA290049B2200040B2FFF7FF
:1024600009FFDFF8E40300684FF47A7148438046BF
:102470005FEA1840B0FBF6F08146002082461FFA62
:1024800089F9484650FA0AF0012802DB1AF1010ADC
:10249000F5E75FFA8AFABAF1080F05DB4FF4D0715D
:1024A000DFF8A00300F047FA404630FA0AF0B0FB2C
:1024B000F6F081461FFA89F9DFF8900364B240F81C
:1024C000249064B2002C05D0022C1AD00DD3032C1A
:1024D00022D02CE01FFA89F919F1010000FB07F066
:1024E0006421B0FBF1F0834621E01FFA89F919F16C
:1024F000010000FB07F04FF4FA61B0FBF1F08346F6
:1025000015E01FFA89F919F1010000FB07F06421B9
:10251000B0FBF1F083460AE01FFA89F919F10100D6
:1025200000FB07F06421B0FBF1F08346FFE7DFF822
:10253000200364B250F824006DB200EBC500DFF850
:10254000101364B251F824106DB201EBC501C968D3
:1025500031F00401C160DFF8F80264B250F82400E1
:102560006DB200EBC5002821C1605FFA8AFA1AF04B
:10257000070050F00800DFF8D81264B251F82410B8
:1025800008601FFA89F9DFF8C80264B250F8240025
:10259000C0F808900020DFF8B81264B251F8241097
:1025A000C864DFF8AC0264B250F824006DB200EBEE
:1025B000C5001FFA8BFBC0F810B00020DFF89012A6
:1025C00064B251F824104860BDE8F18F2DE9F04164
:1025D00004000D0016005FF0000864B2002C11D05A
:1025E00064B2012C02D064B2022C02D16DB2022D71
:1025F00008DB64B2032C05D04FF4F371DFF844021A
:1026000000F099F964B2002C05D0022C16D00BD33F
:10261000032C1CD024E0652E05D34FF4F671DFF8AF
:10262000240200F088F91BE0B6F5FA6F05D94FF4E3
:10263000F871DFF8100200F07EF911E0652E05D385
:102640004FF4FA71DFF8FC0100F075F908E0652E2F
:1026500005D340F2F911DFF8EC0100F06CF9FFE767
:10266000DFF8E80164B250F82400804664B2002C20
:1026700005D0022C16D00BD3032C1CD024E018F16B
:10268000010000FB06F06421B0FBF1F007001BE045
:1026900018F1010000FB06F04FF4FA61B0FBF1F015
:1026A000070011E018F1010000FB06F06421B0FB07
:1026B000F1F0070008E018F1010000FB06F06421CA
:1026C000B0FBF1F00700FFE7DFF8840164B250F8D7
:1026D00024006DB200EBC5000761BDE8F08110B5C4
:1026E000040064B2012C07D064B2022C04D040F282
:1026F000DB21544800F01FF964B22000012802D009
:10270000022811D021E04D48006850F000704B497C
:1027100008604FF4E0610C2000F09CF84FF4E06199
:102720000D2000F097F815E04548006850F08070E3
:10273000434908604FF4C0610A2000F08BF84FF461
:10274000C0610B2000F086F804E040F213313D48F0
:1027500000F0F1F83E4864B250F82400406D50F0AB
:1027600004003B4964B251F824104865384864B20B
:1027700050F82400D0F8800050F00800344964B2CA
:1027800051F82410C1F880000020314964B251F89A
:102790002410C8644FF6FF702D4964B251F824101C
:1027A00088602B4864B250F82400D0F8800050F0C4
:1027B0000100274964B251F82410C1F88000244870
:1027C00064B250F82400406D50F00100204964B21A
:1027D00051F82410486500201D4964B251F82410B6
:1027E000486010BD38B5040064B2012C07D064B253
:1027F000022C04D04FF44C71124800F09CF814489D
:1028000064B250F8240040680500280000B232BDD0
:1028100010B5040064B2012C07D064B2022C04D0BD
:1028200040F23E31074800F086F80020084964B2C3
:1028300051F82410486010BD000000003C800440A6
:1028400030800440404C00002024FF1FF423FF1F71
:10285000180BFF1F10B42B4A13684FF400740200CA
:10286000D2B2520914FA02F21A43264B1A60264ACF
:10287000C0B2431152F82320012310F01F04A340DB
:10288000C2F8A030204AC0B2431152F82320C0B28F
:1028900010F01F0342F8231010BC704710B4194AFF
:1028A00013684FF400740200D2B2520914FA02F213
:1028B0001A43144B1A60144AC0B2431152F8232031
:1028C000012310F01F04A340C2F8A03031F4E061EE
:1028D0000D4AC0B2431152F82320C0B210F01F03BA
:1028E00052F8232012F4E0621143074AC0B24311A8
:1028F00052F82320C0B210F01F0342F8231010BC7E
:102900007047000038800440980BFF1FDFF800F08C
:10291000A90CFF1FDFF800F0CD0CFF1FBFF34F8F96
:102920004748006810F4E06046490843444908609D
:10293000BFF34F8FFEE738B504000D00002000F014
:102940008FF82A002100404800F0E0F8002000F055
:10295000C2F84FF47A7000F006F9F2E738B50400D7
:102960000D00210049B2042000F01EFA200032BD03
:1029700010B50024042000F031FA042000F064FABD
:10298000002841D1002000F06BF8042000F05CFA30
:10299000012801D101200400002000F09CF82B4800
:1029A00000F0B4F84FF4FA7000F0DDF8E4B2012C56
:1029B000EBD1042000F048FA0028E6D1042000F012
:1029C00043FA002806D1002000F085F8642000F0CA
:1029D000CAF8F3E7042000F037FA012806D10020F6
:1029E00000F079F8322000F0BEF8F3E7184800F064
:1029F0008DF8FFF78BFF642000F0B5F80020FFF79B
:102A000089FFFFF78BFFC0E710BD10B511480468C0
:102A1000012000F025F8012000F05DF80E48E4B236
:102A20000F2101FB04F100EB0102E4B221000B488D
:102A300000F06CF84FF47A7000F095F8EBE70000C6
:102A40000CED00E00400FA05204E00006C4F000081
:102A50009C4E000004ED00E01004FF1FBC4D000080
:102A600010B5040064B2042C07DA012201212648C3
:102A700064B2005D00F000FA0EE0042004002000C3
:102A8000441E40B2002807D0012201211E4864B232
:102A9000005D00F0F1F9F2E710BD38B504000D005B
:102AA00064B2042C07DA2900C9B2174864B2005D89
:102AB00000F039FA0EE0042004002000441E40B269
:102AC000002807D02900C9B20F4864B2005D00F0A9
:102AD0002AFAF2E731BD10B5040064B2042C05DA1D
:102AE000094864B2005D00F057FA0CE004200400CD
:102AF0002000441E40B2002805D0034864B2005DA7
:102B000000F04AFAF4E710BDCC0BFF1F0EB400B57D
:102B100082B003A9009102466B4601210348784424
:102B20000A30FDF779FC06BC5DF810FB1D2400009F
:102B300010B50400002C15D0B4F1807F03D32921F7
:102B40000F48FFF7F8FE00200E4908600E480460A9
:102B500000200E49086005200A49086009480068FD
:102B6000C003FBD510BD10B504002000441E002892
:102B700004D007480068FFF7DBFFF6E710BD000050
:102B8000BC4B000010E000E014E000E018E000E0C2
:102B90001824FF1F2DE9F84304000D0064B2002C37
:102BA00008D0022C2CD018D3042C4FD03BD3052CAA
:102BB0005FD071E0DFF80C02006850F48060DFF84D
:102BC000041208604FF440716620FFF743FE4FF493
:102BD00040716720FFF73EFE5EE0DFF8E801006825
:102BE00050F40060DFF8DC1108604FF440714320BE
:102BF000FFF730FE4FF440714420FFF72BFE4BE00F
:102C0000DFF8C001006850F48050DFF8B8110860A8
:102C10004FF440716320FFF71DFE4FF440716220B6
:102C2000FFF718FE38E0DFF89C01006850F4005010
:102C3000DFF8901108604FF440715020FFF70AFE52
:102C40004FF440715120FFF705FE25E0DFF87801D1
:102C5000006850F48060DFF8701108604FF4407134
:102C60004E20FFF7F7FD4FF440714F20FFF7F2FDC4
:102C700012E0DFF85401006850F40060DFF84811FA
:102C800008604FF440718920FFF7E4FD4FF4407174
:102C90008820FFF7DFFDFFE7DFF8300164B250F86E
:102CA0002400C07810F0F300DFF8201164B251F86E
:102CB0002410C870DFF8140164B250F82400807842
:102CC000DFF8081164B251F82410887064B2002C47
:102CD00002D064B2012C07D1DFF8F40000684FF491
:102CE0007A714843814606E0DFF8E80000684FF457
:102CF0007A71484381462801B9FBF0F00600B6B26C
:102D0000B6F5005F02DB41F6FF700600B9FBF5F097
:102D1000B6B2B0EB06100700BFB2202F03DBDC21F8
:102D20002D48FFF708FE294864B250F824000078C7
:102D300010F0E0008046C6F3042050EA0800234962
:102D400064B251F824100870204864B250F824008E
:102D500046701E4864B250F82400807A10F0E000FB
:102D6000804617F01F0050EA0800184964B251F875
:102D700024108872154864B250F82400007C50F08A
:102D80008800124964B251F8241008740F4864B2E4
:102D900050F82400C07850F00C000C4964B251F88F
:102DA0002410C870BDE8F183084A40B252F82020D0
:102DB00012791206F8D5054A40B252F82020D17196
:102DC000704700003480044028800440AC0BFF1F93
:102DD0001824FF1F2024FF1F004D000010B5040021
:102DE00064B2082C0DDA00220021224864B2005D92
:102DF00000F042F803211F4864B2005DFFF74EFD6A
:102E000014E0082004002000441E40B200280DD029
:102E100000220021174864B2005D00F02DF8032164
:102E2000144864B2005DFFF739FDECE710BD10B542
:102E30000400104864B2005D00F0CAF8002801D117
:102E4000002000E0012010BD10B50400200040B2B9
:102E5000FFF7EDFF00280AD10A20FFF784FE2000CB
:102E600040B2FFF7E4FF002801D1002000E001207C
:102E700010BD0000C40BFF1F70B504000D0016004C
:102E80004FF480712000C0B2FFF7E4FC6DB2002D5A
:102E900011D15E48E4B2611150F821005B49E4B2FF
:102EA000621151F822104969012214F01F039A405F
:102EB0009143416136E05548E4B2611150F8210078
:102EC0005249E4B2621151F822104969012214F00A
:102ED0001F039A4011434161F6B2002E11D14B48B5
:102EE000E4B2611150F821000068012114F01F02C2
:102EF000914088434549E4B2621151F822100860BC
:102F000010E04248E4B2611150F82100006801214C
:102F100014F01F02914008433C49E4B2621151F899
:102F20002210086070BD38B504000D003748E4B2C7
:102F3000611150F82100406914F01F01C840C0071A
:102F400003D463213248FFF7F6FCEDB2002D11D116
:102F50002E48E4B2611150F821000068012114F0FC
:102F60001F02914088432949E4B2621151F82210AE
:102F7000086010E02548E4B2611150F821000068B3
:102F8000012114F01F02914008432049E4B262116C
:102F900051F82210086031BD10B504001B48E4B29E
:102FA000611150F82100406914F01F01C840C007AA
:102FB00003D47B211648FFF7BEFC1448E4B261112C
:102FC00050F82100012114F01F029140C16010BD92
:102FD00010B504000D48E4B2611150F821004069B9
:102FE00014F01F01C840C00703D58C210848FFF723
:102FF000A2FC0648E4B2611150F82100006914F007
:103000001F01C84010F0010010BD0000280BFF1F79
:10301000804C0000DFF800F0190EFF1FDFF8B4133A
:1030200040B231F8201040B20128C0F2788140B29D
:10303000162880F274810022DFF89C331A7089B25E
:10304000652904DA0022DFF890335A707DE089B2F6
:10305000C92904DA0122DFF880335A7075E089B299
:10306000B1F5967F04DC0222DFF86C335A706CE015
:1030700089B2B1F5C87F04DC0322DFF85C335A70F3
:1030800063E089B2B1F5FA7F04DC0422DFF848334B
:103090005A705AE089B2B1F5167F04DC0522DFF8D8
:1030A00038335A7051E089B2B1F52F7F04DC062223
:1030B000DFF824335A7048E089B2B1F5487F04DC68
:1030C0000722DFF814335A703FE089B2B1F5617F0F
:1030D00004DC0822DFF800335A7036E089B2B1F51B
:1030E0007A7F04DC0922DFF8F0325A702DE089B2D1
:1030F00040F24D42914203DA0A22B74B5A7024E063
:1031000089B2B1F5966F03DC0B22B34B5A701CE009
:1031100089B240F21552914203DA0C22AE4B5A703A
:1031200013E089B2B1F5AF6F03DC0D22AA4B5A70E0
:103130000BE089B240F2DD52914203DA0E22A64B37
:103140005A7002E00F22A44B5A7089B2332903DA75
:103150000022A14B9A7071E089B2652903DA01223D
:103160009D4B9A706AE089B2972903DA02229A4B42
:103170009A7063E089B2C92903DA0322964B9A70E8
:103180005CE089B2FB2903DA0422934B9A7055E084
:1031900089B2B1F5967F03DC05228F4B9A704DE022
:1031A00089B2B1F5AF7F03DC06228B4B9A7045E004
:1031B00089B2B1F5C87F03DC0722874B9A703DE0E6
:1031C00089B2B1F5E17F03DC0822834B9A7035E0C8
:1031D00089B2B1F5FA7F03DC09227F4B9A702DE0AA
:1031E00089B240F22722914203DA0A227A4B9A707E
:1031F00024E089B2B1F5167F03DC0B22764B9A707E
:103200001CE089B240F28B22914203DA0C22724B0D
:103210009A7013E089B2B1F52F7F03DC0D226E4B5B
:103220009A700BE089B240F2EF22914203DA0E224B
:10323000694B9A7002E00F22674B9A7089B21A2983
:1032400003DA0022644BDA7069E089B2332903DAC9
:103250000122614BDA7062E089B24C2903DA022262
:103260005D4BDA705BE089B2652903DA03225A4BC1
:10327000DA7054E089B27E2903DA0422564BDA7000
:103280004DE089B2972903DA0522534BDA7046E004
:1032900089B2B02903DA06224F4BDA703FE089B2D7
:1032A000C92903DA07224C4BDA7038E089B2E229E7
:1032B00003DA0822484BDA7031E089B2FB2903DADD
:1032C0000922454BDA702AE089B2B1F58A7F03DA28
:1032D0000A22414BDA7022E089B2B1F5967F03DC15
:1032E0000B223D4BDA701AE089B2B1F5A37F03DA05
:1032F0000C22394BDA7012E089B2B1F5AF7F03DCF2
:103300000D22354BDA700AE089B2B1F5BC7F03DAE1
:103310000E22314BDA7002E00F222F4BDA70704729
:1033200010B50400200040B2FFF778FE2B4800786B
:1033300010F0FD00294908702848007850F010006E
:1033400026490870B8202649087026480078C0062B
:10335000FBD424480078C0F38100C0B20228F8D121
:103360001D48C3781C4882781B4841781A48007869
:10337000FFF750FE174864B200EB8400807810F02D
:10338000070019490870134864B200EB8400C07844
:1033900010F01F0050F040001449087011480078E8
:1033A0008006FBD50F4800784006FBD50C48007816
:1033B00010F03F000A4908700A480078C0F3810005
:1033C000C0B20328F8D1034864B230F82400C0B278
:1033D00010BD00003C0BFF1F940BFF1F0140064077
:1033E00000400640064006400440064005400640B6
:1033F00001B4BDF80000002805D0BDF80000401E53
:10340000ADF80000F5E701B0704780B50122012159
:103410001A20FFF731FD012201211920FFF72CFDB1
:1034200023211A20FFF73AFA23211920FFF736FA51
:1034300001BD80B501207A49086001207949086002
:103440004FF4C870FFF7D4FF002077490860774831
:103450000068002804D1012073490860002016E0AC
:1034600001207149086000206D4908604FF4C87060
:10347000FFF7BEFF00206B4908606C480068002819
:1034800004D0012068490860002000E0012002BD4E
:1034900080B50020634908600020614908604FF44E
:1034A000C870FFF7A5FF01205E4908604FF4C8709F
:1034B000FFF79EFF01205A4908604FF4C870FFF7DC
:1034C00097FF01BD80B50020564908604FF4C870D1
:1034D000FFF78EFF0020524908604FF4C870FFF7D5
:1034E00087FF01204F4908604FF4C870FFF780FF45
:1034F00000204C4908604FF4C870FFF779FF01BD08
:1035000080B50020474908604FF4C870FFF770FF8E
:103510000120434908604FF4C870FFF769FF01209C
:10352000404908604FF4C870FFF762FF00203D4932
:1035300008604FF4C870FFF75BFF01BD80B5002045
:10354000384908600020384908604FF4C870FFF718
:103550004FFF0120334908604FF4C870FFF748FF60
:1035600032480068002807D001202F490860002059
:103570002C490860002006E001202B49086000204B
:1035800028490860012002BD38B505000824200044
:10359000441EC0B2002818D0280603D501202049B7
:1035A000086002E000201E4908606D004FF4C870FA
:1035B000FFF71EFF01201B4908604FF4C870FFF79A
:1035C00017FF002017490860E1E731BD38B508242E
:1035D00000250020144908602000441EC0B20028C5
:1035E00015D06D0000200F4908604FF4C870FFF738
:1035F000FFFE01200B4908604FF4C870FFF7F8FE8A
:103600000A4800680028E7D055F00105E4E70120EA
:1036100005490860002003490860EDB2280032BD6A
:103620006400FE436800FE43E402FE436402FE437E
:1036300070B504000D0000262900C9B2200080B238
:1036400000F00AF8002805D1761CF6B2142EF3D14A
:10365000002000E0012070BD38B504000D00FFF728
:10366000E8FE002801D1002019E04220FFF78CFF7E
:10367000FFF764FF002803D1FFF70AFF00200EE0E8
:103680002000C0B2FFF780FFFFF758FF2800C0B24C
:10369000FFF77AFFFFF752FFFFF7FAFE012032BD76
:1036A000F8B504000D00160000273200D2B2290040
:1036B00089B2200000F00AF8002805D17F1CFFB273
:1036C0001E2FF2D1002000E00120F2BD70B50400F1
:1036D0000D001600FFF7ADFE002801D1002037E0F5
:1036E0004220FFF751FFFFF729FF002803D1FFF722
:1036F000CFFE00202CE03000C0B2FFF745FFFFF7FF
:103700001DFFFFF7C5FEFFF794FE002801D1002042
:103710001EE04320FFF738FFFFF710FF002803D11A
:10372000FFF7B6FE002013E0ADB2002D0DD0FFF77D
:103730004DFF2070ADB2012D02D1FFF7E1FE01E097
:10374000FFF7C0FE641C6D1EEEE7FFF7A1FE01202F
:1037500070BD0000F8B50400AA484068A949086097
:10376000A8488068A7494860A4B2A7480068201A02
:10377000A4498860A3488068A2494968401AFDF7B7
:10378000C1FFA24AA24BFDF793FDFDF78FFF050095
:103790009C488068FDF7B6FF5FF066329D4BFDF7F1
:1037A00087FDFDF783FF06009648806895494968C4
:1037B000B0EB4100934909680818FDF7A3FF964A4A
:1037C000964BFDF775FDFDF771FF0700701938186E
:1037D0009349088093480068002805D1E922002118
:1037E0000120FEF7F3FE1BE08D48B0F900004228EF
:1037F00002DB41208A4908808948B0F9000010F1B5
:10380000410F03DA7FF040008549088040F21D1027
:103810008349B1F90010421A00210120FEF7D6FEBB
:10382000F1BD80B214282AD17E490968002903D14C
:103830000D217D4A116022E07A490968232903DBC2
:103840000D21794A11601AE076490968232907DABF
:1038500074490968222903DB0F21734A11600EE0C5
:1038600070490968212907DA6E4909681C2903DBB8
:1038700012216D4A116002E080B26B49086080B28B
:10388000192836D167490968002903D10D21664AF4
:1038900011602EE063490968232903DB0D21624A88
:1038A000116026E05F490968232907DA5D49096844
:1038B000222903DB10215C4A11601AE0594909688A
:1038C000212907DA574909681F2903DB1121564AC4
:1038D00011600EE0534909681E2907DA5149096849
:1038E0001C2903DB1621504A116002E080B24E49C8
:1038F000086080B21E2842D14A490968002903D1D4
:103900000D21494A11603AE046490968232903DB41
:103910000E21454A116032E042490968232907DA3D
:1039200040490968222903DB10213F4A116026E043
:103930003C490968212907DA3A4909681F2903DB4C
:103940001321394A11601AE0364909681E2907DA3D
:10395000344909681C2903DB1621334A11600EE043
:10396000304909681B2907DA2E490968152903DB44
:1039700019212D4A116002E080B22B49086070477E
:1039800010B504002948007801281AD1254800689C
:10399000012807DB234800680A2803DA2620FFF7FE
:1039A000D9FE0EE01F4800680A2807DB1D480068A2
:1039B000142803DA2020FFF7CDFE02E01D20FFF7D8
:1039C000C9FE1A48007800281AD116480068012854
:1039D00007DB144800681A2803DA2620FFF7BAFE2E
:1039E0000EE0104800681A2807DB0E4800682828F7
:1039F00003DA2520FFF7AEFE02E02020FFF7AAFE43
:103A000010BD00000C24FF1FA40EFF1FCDCCCCCC9A
:103A1000CCCCFC3F6666F63F9A9999999999E93F13
:103A20007A24FF1FA80EFF1FF023FF1F740CFF1F37
:103A30002DE9F843002400255FF000085FF000093D
:103A40000020974908604FF416729649964800F096
:103A500035F903200700012F09DB944800EB8700AC
:103A600050F8040C914941F827007F1EF3E700202D
:103A700004003C2C2BD28C48502101FB04F108445B
:103A8000401C05008848502101FB04F108444F30D8
:103A900085421AD215F8010CFF2808D12878002891
:103AA00005D16878FF2802D1FF2028700BE015F8B7
:103AB000010C002807D12878FF2804D16878002855
:103AC00001D1002028706D1CDCE7641CD1E70020C8
:103AD00004003C2C04D2002075490855641CF8E70A
:103AE000002004003C2C2CD26F48502101FB04F133
:103AF0000844401C05006C48502101FB04F10844B7
:103B00004F3085420CD22878FF2807D16878FF28EB
:103B100004D16748005D401C654908556D1CEAE703
:103B2000002C03D162480078060008E06048005D80
:103B3000864204DA5E48005D060059480460641C51
:103B4000D0E7574800685949086000200700052F52
:103B50000DDA564850F82700012801DB18F101085A
:103B6000524850F8270010EB09097F1CEFE7B8F125
:103B7000000F03D100204A49086003E099FBF8F0E8
:103B800047490860BDE8F183F0B400220023002417
:103B9000484D2C6000240025002630003C2818DA0F
:103BA0000026414F5FF0500C0CFB00FC674487F887
:103BB0004F603D4E502707FB00F73E4496F84F609C
:103BC000394F5FF0500C0CFB00FC07F80C60401CF8
:103BD000E4E700263000502831DA334E304F3F689A
:103BE0005FF0500C0CFB07F73E44365C002E0CD106
:103BF0002D4E2B4F3F685FF0500C0CFB07F73E44F7
:103C000006447678FF2E00D10400274E244F3F68EB
:103C10005FF0500C0CFB07F73E44365CFF2E0CD1D6
:103C2000214E1F4F3F685FF0500C0CFB07F73E44DE
:103C300006447678002E00D10500401CCBE7042610
:103C40003100012909DB1C4E06EB810656F8046C95
:103C5000194F47F82160491EF3E72E19022796FBFA
:103C6000F7F6154F3E600026310005290BDA124E9B
:103C700056F82160012E00DB521C0F4E56F82160D1
:103C8000F318491CF1E7002A03D10026094F3E60D2
:103C900003E093FBF2F6074F3E60F0BC7047000074
:103CA000A80EFF1FD40EFF1F2C11FF1FC00EFF1FF9
:103CB000680EFF1FA40EFF1FAC0EFF1FF8B4234BAE
:103CC0001B88ADF8003005000C001600721E002E97
:103CD0003AD026783300641C6E46DBB2DF11F65D05
:103CE0002E706D1C6E46C3F38017FFB2F65D2E700A
:103CF0006D1C6E46C3F34017FFB2F65D2E706D1C4F
:103D00006E46C3F30017FFB2F65D2E706D1C6E4653
:103D1000C3F3C007FFB2F65D2E706D1C6E46C3F391
:103D20008007FFB2F65D2E706D1C6E46C3F3400730
:103D3000FFB2F65D2E706D1C6E46DBB213F001070C
:103D4000F65D2E706D1CC0E7F1BC70472A100000B4
:103D50002DE9F84380460C005FEA981010F0070048
:103D6000C0B25FEA40194046103810F03F00C0B2C0
:103D7000C000050015EB09000700E4B217EBC40012
:103D8000401E060030003900C0B2C9B288420DD3CF
:103D9000002200213800C0B2FFF76EF84FF48171A5
:103DA0003800C0B2FEF756FD7F1CEBE7BDE8F1839B
:103DB0002DE9F84F04000D0016009B469DF9287070
:103DC000DDF82C80DDF830907FB2002F02D15FF05B
:103DD000010A0DE07FB2012F02D15FF0020A07E075
:103DE0007FB2022F02D15FF0040A01E05FF0100AF7
:103DF0007FB2002F05D15A48854202D35948A842C4
:103E00001DD27FB2012F09D15548854206D35648AD
:103E1000A84203D315F00300032810D17FB2022F6C
:103E200009D14F48854206D35048A84203D315F024
:103E30000300002803D061214D48FEF77CFDB8F552
:103E4000004F03D363214A48FEF775FD49480068D7
:103E500050F00200474908604748006850F00200EF
:103E600045490860454864B261014550434864B221
:103E70006101084406610020404964B262011144B6
:103E800088805FFA8AFA3D4864B261010844A0F86C
:103E900014A07FB2380210F4E0607FB217F007017F
:103EA0000843364964B262011144C8804046400468
:103EB000400C324964B262011144C8824046400459
:103EC000400C2E4964B262011144C8832C4800683A
:103ED00030F080002A4908605FFA8AFA274864B205
:103EE00061010844C0F808A00020244964B26201BE
:103EF0001144C8605FEAC97002D4D8F1000000E044
:103F000000201E4964B26201114488614CF20A002B
:103F10001A4964B26201114488835846C0B240090C
:103F2000313050F08000174964B2085516495846A0
:103F3000C0B2FEF78FFC5146C9B22800FFF708FF58
:103F4000124800680121A1408843104908601048C8
:103F500000680121A14008430D490860BDE8F18FC8
:103F600010F00F4013F10F4012F10F4010F10F400D
:103F7000004C0000408004403C8004400090004021
:103F80000080004000100240000101000C80004051
:103F900024800040012110F01F029140794A40B274
:103FA000430942F823107047012110F01F0291408D
:103FB000754A40B2430942F82310704710B5040017
:103FC0007248046000F084F80028FBD000F002F88A
:103FD000002010BDE0B5012002904FF41670019052
:103FE000002000901B236948026869490020FFF700
:103FF000DFFE6848006840084000664908605720B6
:10400000FFF7D2FF6448006850F001006249086081
:104010000020FFF7BFFF61491B20FEF71BFC604932
:104020001D20FEF717FC07BD80B55E4890F9000023
:10403000042818D103205B4908705720FFF7B4FF0C
:104040005FF00060584908605248006850F0010075
:10405000504908605FF00060534908604B480068B1
:104060005249086005E05720FFF79EFF02204D49A6
:10407000087001BD01204B4908704748006850F0A6
:10408000010045490860704780B504204549087023
:104090005FF0FF30444908605720FFF77BFF41483D
:1040A00090F9000001280FD03E4890F90000022846
:1040B000F5D104203B4908705FF0FF303A490860B1
:1040C0005720FFF767FFEAE701203949087001BD73
:1040D00010B582B0002400208DF80000FFF795F99C
:1040E00080211220FFF7A4FA002804D13148FEF7FE
:1040F0000DFD002044E03220FEF735FD0B220121AA
:104100006846FFF7CDFA002804D12B48FEF7FEFCE5
:10411000002035E09DF800102848FEF7F7FC2848FD
:1041200001782848FEF7F2FC9DF80000212826D1EE
:104130000020040020002249097880B289B2884218
:1041400018D22148A4B200EB440041781E48A4B222
:1041500010F8140080B2FFF76BFA002808D11A4853
:10416000A4B210F814101948FEF7D0FC002007E0A4
:10417000641CDFE71648FEF7C9FC012000E00020C0
:1041800016BD000000E100E080E100E02424FF1FF4
:1041900050F00F400C8000402480004002010200DB
:1041A00012010900750CFF1FA09004401090004000
:1041B0007E24FF1F184F0000804F0000444E000077
:1041C000760CFF1FBC4E0000D00BFF1F304F0000CD
:1041D000684E0000012110F01F0291407C4A40B25D
:1041E000430942F823107047012110F01F0291404B
:1041F000784A40B2430942F82310704738B500248A
:1042000014257548FFF7DAFE00F01EF98020FEF74E
:10421000DFFE012807D1002070490870002100202E
:10422000FEF73BFC0AE08120FEF7D2FE012805D113
:104230001920050000210120FEF72FFC0FF2751157
:10424000552000F086F90FF21D11542000F081F97D
:104250000FF2DD01672000F07CF90FF20111102050
:1042600000F077F9FFF710FF5D4800780128F9D1D9
:1042700000205B490870FFF7DBFBFFF785FC59481E
:104280000078002808D14420FFF7A4FF01205549F9
:104290000870032000F0AAF95248007801281BD1C9
:1042A000280080B2FFF76CFB280080B2FFF7B9FA54
:1042B000032000F0D8F94C490968B0FBF1F0B0F5E3
:1042C0007A7F09D9002C07D10120484908700120C4
:1042D0000400032000F0FBF9424800780128C1D116
:1042E000434800680028BDD1404800780128B9D172
:1042F0004420FFF779FFFF2200210120FEF766F935
:104300001E2203210020FEF761F900220421002073
:10431000FEF75CF94FF4C870FEF725FC0020334926
:1043200008704420FFF756FF4520FFF753FF99E739
:1043300038B5304800680028FBD02E4800680500DA
:104340005FF0FF302B4908601D2004002800E0408A
:10435000C00701D5FFF768FE31BD000080B5FFF74B
:1043600089FE01BD10B50220FEF73CFA040024B21C
:10437000012C02DB24B21E48046024B2002C02D1BE
:1043800000201B49086024B214F1050F03DA24B29F
:104390006042174908600220FEF73AFA16480068A2
:1043A00080B200F0B5F91548006850F001001349DB
:1043B000086010BD80B54520FFF716FF01200B49AE
:1043C00008700F48006850F001000D49086001BDF9
:1043D00000E100E080E100E0D40EFF1F740CFF1F3D
:1043E0007E24FF1F7D24FF1F2024FF1F7C24FF1F2E
:1043F000EC23FF1FA0900440F023FF1F0C7103402B
:104400001C71034010F00702444B1B6819004FF663
:10441000FF031940424B53EA022319433F4B1960F3
:10442000704710B440B2002808D50A013D4B40B295
:1044300010F00F04234403F8042C03E00A013A4B64
:1044400040B21A5410BC704780B50020FEF708FB3C
:104450000120FEF705FB002344F620620321002023
:10446000FDF7DEFF002344F6206204210020FDF763
:10447000D7FF4FF4FA63642200210120FDF7D0FF3B
:104480000220FEF72CF940F21D1200210120FEF758
:104490009DF8012201211120FEF7EEFC00220021EF
:1044A0008020FEF7E9FC002200218120FEF7E4FCD9
:1044B000002200218220FEF7DFFC00220021832061
:1044C000FEF7DAFC012200216720FEF7D5FC01226D
:1044D00000216920FEF7D0FC0220FFF793FF0221A4
:1044E0004420FFF79EFF03214520FFF79AFF00219C
:1044F0005720FFF796FF01210020FFF792FF0B489E
:104500000168002000F03CF80848006840F2DC51E7
:1045100001FB00F1012000F033F801BD0CED00E0DB
:104520000000FA0518ED00E000E400E02024FF1F81
:1045300010B504004FF4007094FBF0F100FB114043
:10454000002803D01E210B48FEF7F5F90A48046045
:1045500010BD38B504000D000748006807498842BF
:1045600003D030210348FEF7E6F9044864B240F86E
:10457000245031BD804D000008ED00E00000FF1F19
:1045800038B504000D00002D03D122215C48FEF750
:10459000D2F95C48006850F400005A4908600020D5
:1045A00059490860681E594964B222018850574829
:1045B00064B221010844C06850F00100534964B25C
:1045C00022011144C860514864B221010844806846
:1045D000400840004D4964B2220111448860032024
:1045E0004A4964B222011144886031BD45490968D5
:1045F00051F40001434A1160434909688908890060
:10460000414A1160414940B2020111448968490898
:1046100049003E4A40B203011A4491605FF0FF3105
:104620003A4A40B20301D150384940B20201114424
:10463000C96851F00101354A40B203011A44D16002
:10464000324940B2020111448968490849002F4AA1
:1046500040B203011A44916001212C4A40B2030187
:104660001A449160704710B401005FF0FF30274B8F
:1046700049B20C0123445B68C01A0200234849B2C6
:104680000B011844C068C0071AD5204849B20B0175
:104690001844C06850F001001C4B49B20C0123447F
:1046A000D8601A4849B20B0118448068400840009D
:1046B000164B49B20C01234498605FF0FF3004E0D0
:1046C00012F1010F00D1521E100010BC70470F49AB
:1046D00040B202011144C96851F001010B4A40B2D5
:1046E00003011A44D160094940B2020111448968AA
:1046F00049084900054A40B203011A4491607047D5
:10470000C04C00003C800440007003400071034036
:10471000F8B504003B4840883A4988803948008809
:104720003849488038480068201A3649088035489A
:10473000B0F900003349B1F90210401AFCF7E2FF6A
:104740000022324BFCF7B4FDFCF7B0FF05002D480A
:10475000B0F90000FCF7D6FF00222D4BFCF7A8FDB6
:10476000FCF7A4FF0600274800882649498809B2BB
:10477000B0EB4100234989880818002110FB01F0A3
:104780000700244800887119791808182149088001
:104790002048B0F90000012813DB1E48B0F90000E2
:1047A000512802DB50201B490880002203210020F1
:1047B000FDF70CFF1748B0F9002004210020FDF799
:1047C00005FF1448B0F90000002819D51148B0F9C8
:1047D000000040420F4908800E48B0F900005128FF
:1047E00002DB50200B4908800A48B0F90020032161
:1047F0000020FDF7EBFE002204210020FDF7E6FE7D
:10480000F1BD00BF0424FF1FEC23FF1F0000E03FA9
:104810000000D03F7824FF1FDFF800F0672B000076
:10482000DFF800F037290000F020544908705348A1
:1048300000780006FBD5514800787121084201D06C
:10484000002000E00120704780B54D48006850F41A
:1048500000204B490860494800780006FBD5F0204D
:10486000464908700A20FFF7D7FF01BD10B582B096
:104870000400A4B24FF4805000FB04F00090092023
:10488000404908709DF802003F4908709DF80100FA
:104890003E4908709DF800003D490870FFF7C4FFCD
:1048A000002801D100200EE0A4B2002C0AD15FF054
:1048B000FF327FF001034FF48161200080B200F0ED
:1048C00003F800E0012016BDF0B583B006000F002C
:1048D00014001D00B6B24FF48050BFB200FB06704A
:1048E0000190BFB2082097FBF0F100FB1170002887
:1048F00003D0EA212748FFF793FFBFB2B7F5805FE7
:1049000003DDEC212348FFF78BFF9DF806001E49CD
:1049100008709DF805001D4908709DF804001C49A9
:10492000087000949DF803001B4908709DF8020070
:104930001A4908709DF80100194908709DF8000097
:104940001849087007200F49087000959DF803006A
:10495000154908709DF80200144908709DF801007F
:10496000134908709DF8000012490870FFF75CFFBA
:10497000002801D1002000E00120FEBD000002401F
:1049800004F001400700024006000240050002401A
:1049900004000240784B00000B0002400A00024075
:1049A00009000240080002400F0002400E000240D1
:1049B0000D0002400C000240F0B4114E3668340085
:1049C0000F4E366856F47F060D4F3E600E0616F009
:1049D000706656EA0076170517F470073E431F0409
:1049E00017F470273E43074F3E6000263500EDB2B6
:1049F0009D4201D26D1CFAE7014E3460F0BC704755
:104A000000F001404480044080B500F095F800F0CB
:104A10002AF800F00AF8FDF7ABFF0122012104207B
:104A2000FEF72AFAFFF7EAFBFEE780B50C20FEF757
:104A300077FC33490860324800684FF47A71484384
:104A4000304908602F4800682F490968C1F30361A5
:104A5000491CB0FBF1F02D4908604FF416510420B9
:104A6000FEF798F801BD2DE9F84329482949884205
:104A70000DD000208046B8F5826F08D2254850F846
:104A80002800234941F8280018F10108F3E72048DD
:104A9000FFF74EFD2048070020480600204804008C
:104AA000A01B80464046B0F10108002804D03078B1
:104AB0003870761C7F1CF5E71A4881461A480500B5
:104AC000B5EB090080464046B0F10108002805D04A
:104AD000002089F8000019F10109F4E7134814498E
:104AE000144A531A98464346B3F10108002B04D0E8
:104AF0000B780370491C401CF5E7BDE8F18300000A
:104B00001C24FF1F1824FF1F448004402024FF1F83
:104B10000000FF1F000000001004FF1F0C1A00001F
:104B200074220000680EFF1F8024FF1F780CFF1FF7
:104B300018480000084A000080B500F008F80C484A
:104B400000884FF6FE7108400949088001BDEFF367
:104B5000118072B64CF22051064A11804DF6281190
:104B6000044A1180C0B2002800D162B6704700002C
:104B7000002005400E200540433A5C557365727372
:104B80005C41646D696E6973747261746F725C44C8
:104B900065736B746F705CD0A1B3B5B2E2CAD431E7
:104BA0002E305C436869705C7372635C4D4B3630C9
:104BB0005F666C6173682E6300000000433A5C55C9
:104BC000736572735C41646D696E6973747261744C
:104BD0006F725C4465736B746F705CD0A1B3B5B2D7
:104BE000E2CAD4312E305C436869705C7372635CD6
:104BF0004D4B36305F5379735469636B2E630000FD
:104C0000433A5C55736572735C41646D696E697398
:104C1000747261746F725C4465736B746F705CD096
:104C2000A1B3B5B2E2CAD4312E305C436869705C7E
:104C30007372635C4D4B36305F646D612E630000B0
:104C4000433A5C55736572735C41646D696E697358
:104C5000747261746F725C4465736B746F705CD056
:104C6000A1B3B5B2E2CAD4312E305C436869705C3E
:104C70007372635C4D4B36305F66746D2E6300005B
:104C8000433A5C55736572735C41646D696E697318
:104C9000747261746F725C4465736B746F705CD016
:104CA000A1B3B5B2E2CAD4312E305C436869705CFE
:104CB0007372635C4D4B36305F6770696F2E6300B3
:104CC000433A5C55736572735C41646D696E6973D8
:104CD000747261746F725C4465736B746F705CD0D6
:104CE000A1B3B5B2E2CAD4312E305C436869705CBE
:104CF0007372635C4D4B36305F5049542E63000035
:104D0000433A5C55736572735C41646D696E697397
:104D1000747261746F725C4465736B746F705CD095
:104D2000A1B3B5B2E2CAD4312E305C436869705C7D
:104D30007372635C4D4B36305F756172742E630025
:104D400019E050F8041BCB0744BFA9F1010359181F
:104D5000121F0023042A41F8043BF9D25FEA827C47
:104D60000B4604D54FF0000CA1F800C09B1CD107E6
:104D700044BF0021197050F8042B002AE1D170477C
:104D8000433A5C55736572735C41646D696E697317
:104D9000747261746F725C4465736B746F705CD015
:104DA000A1B3B5B2E2CAD4312E305C436869705CFD
:104DB0007372635C6D6973632E6300000A2A2A2A8A
:104DC0002A64656661756C745F69737220656E74C0
:104DD00065726564206F6E20766563746F7220253E
:104DE000642A2A2A2A2A0A0A257320496E746572BF
:104DF000727570740000000010B5074979441831CD
:104E0000064C7C44163404E00A68081D11448847A7
:104E10000146A142F8D110BD7400000080000000DE
:104E2000417373657274696F6E206661696C656445
:104E300020696E202573206174206C696E652025C1
:104E4000640A00000A47657420494420737563634F
:104E5000657373A3AC53454E534F522049442069A8
:104E600073203078257800000A4F563737323520C6
:104E7000526567697374657220436F6E6669672057
:104E8000537563636573732100000000B5FEFFFF77
:104E900018160000680EFF1F000000000ABDF8D0C1
:104EA000D0BDE2CBF8B2D9D7F7A3ACC7EBD6D8D0F8
:104EB000C2CBA2C8EBB9CCBCFE0000000A436F6EA7
:104EC000666967205265676973746572204E756DF7
:104ED00062657220697320256420000000F00BF8E1
:104EE000002801D0FFF788FF0020C046C046FFF72A
:104EF00085F900F002F80120704700F001B80000C9
:104F00000746384600F002F8FBE7000020210903BD
:104F100026311820ABBEF9E70ABEAFB8E63A5343D4
:104F20004342D0B4CAFDBEDDB4EDCEF300000000B4
:104F30000ABEAFB8E63AD0B4BCC4B4E6C6F730781F
:104F40002578CAA7B0DC000038B504460D462846CF
:104F500000F006F8A84218BF0024204632BD000029
:104F60000149FDF7FBBC00BF340CFF1F0ABDF8C8A8
:104F7000EBCBC0D1ADBBB7B5C8B4FDA3A100000059
:104F80000ABEAFB8E63AB6C1C8A14944CAA7B0DC68
:104F900000000000C046C046C046C046FFF79EFF66
:104FA0000000000000000000000000000000000001
:104FB000000000000000000000000000FFFFFFFFF5
:104FC000FFFFFFFF000000000000000000000000E5
:104FD00000000000000000000000000000000000D1
:104FE0000000000000000000FFFFFFFFFFFF0000C7
:104FF00000000000000000000000000000000000B1
:1050000000000000000000000000000000000000A0
:105010000000000000000000000000000000000090
:08502000000000000000000088
:0400000500004F9513
:00000001FF
